{
  "contractName": "Main",
  "abi": [
    {
      "constant": true,
      "inputs": [],
      "name": "memberCount",
      "outputs": [
        {
          "name": "",
          "type": "uint256"
        }
      ],
      "payable": false,
      "stateMutability": "view",
      "type": "function"
    },
    {
      "constant": true,
      "inputs": [
        {
          "name": "",
          "type": "uint256"
        }
      ],
      "name": "members",
      "outputs": [
        {
          "name": "name",
          "type": "string"
        },
        {
          "name": "owner",
          "type": "address"
        },
        {
          "name": "timestamp",
          "type": "uint256"
        }
      ],
      "payable": false,
      "stateMutability": "view",
      "type": "function"
    },
    {
      "constant": true,
      "inputs": [],
      "name": "admin",
      "outputs": [
        {
          "name": "",
          "type": "address"
        }
      ],
      "payable": false,
      "stateMutability": "view",
      "type": "function"
    },
    {
      "constant": false,
      "inputs": [
        {
          "name": "_name",
          "type": "string"
        },
        {
          "name": "_owner",
          "type": "address"
        }
      ],
      "name": "add",
      "outputs": [],
      "payable": false,
      "stateMutability": "nonpayable",
      "type": "function"
    }
  ],
  "bytecode": "0x6080604052732b1ccbb47df9585e513cecac307a1e8ce0b620c5600260006101000a81548173ffffffffffffffffffffffffffffffffffffffff021916908373ffffffffffffffffffffffffffffffffffffffff16021790555034801561006557600080fd5b5061053c806100756000396000f300608060405260043610610062576000357c0100000000000000000000000000000000000000000000000000000000900463ffffffff16806311aee380146100675780632bffc7ed146100925780635daf08ca1461011b578063f851a440146101fb575b600080fd5b34801561007357600080fd5b5061007c610252565b6040518082815260200191505060405180910390f35b34801561009e57600080fd5b50610119600480360381019080803590602001908201803590602001908080601f0160208091040260200160405190810160405280939291908181526020018383808284378201915050505050509192919290803573ffffffffffffffffffffffffffffffffffffffff169060200190929190505050610258565b005b34801561012757600080fd5b5061014660048036038101908080359060200190929190505050610363565b60405180806020018473ffffffffffffffffffffffffffffffffffffffff1673ffffffffffffffffffffffffffffffffffffffff168152602001838152602001828103825285818151815260200191508051906020019080838360005b838110156101be5780820151818401526020810190506101a3565b50505050905090810190601f1680156101eb5780820380516001836020036101000a031916815260200191505b5094505050505060405180910390f35b34801561020757600080fd5b50610210610445565b604051808273ffffffffffffffffffffffffffffffffffffffff1673ffffffffffffffffffffffffffffffffffffffff16815260200191505060405180910390f35b60015481565b600260009054906101000a900473ffffffffffffffffffffffffffffffffffffffff1673ffffffffffffffffffffffffffffffffffffffff163373ffffffffffffffffffffffffffffffffffffffff16141561035f5781600080600154815260200190815260200160002060000190805190602001906102d992919061046b565b5080600080600154815260200190815260200160002060010160006101000a81548173ffffffffffffffffffffffffffffffffffffffff021916908373ffffffffffffffffffffffffffffffffffffffff160217905550426000806001548152602001908152602001600020600201819055506001600081548092919060010191905055505b5050565b6000602052806000526040600020600091509050806000018054600181600116156101000203166002900480601f01602080910402602001604051908101604052809291908181526020018280546001816001161561010002031660029004801561040f5780601f106103e45761010080835404028352916020019161040f565b820191906000526020600020905b8154815290600101906020018083116103f257829003601f168201915b5050505050908060010160009054906101000a900473ffffffffffffffffffffffffffffffffffffffff16908060020154905083565b600260009054906101000a900473ffffffffffffffffffffffffffffffffffffffff1681565b828054600181600116156101000203166002900490600052602060002090601f016020900481019282601f106104ac57805160ff19168380011785556104da565b828001600101855582156104da579182015b828111156104d95782518255916020019190600101906104be565b5b5090506104e791906104eb565b5090565b61050d91905b808211156105095760008160009055506001016104f1565b5090565b905600a165627a7a723058209ab6cc6924f758976f8e764cd44240a8b5c5d377749744954650bdd1d82763430029",
  "source": "pragma solidity ^0.4.2;\n\ncontract Main {\n\n    // MEMBERS\n    mapping(uint256 => User) public members;\n    uint256 public memberCount;\n\n    // CONTRACT ADMIN\n    address public admin = 0x2b1ccbb47df9585e513cecac307a1e8ce0b620c5;\n\n    // USER OBJECT\n    struct User {\n        string name;\n        address owner;\n        uint256 timestamp;\n    }\n\n    // ADD MEMBER\n    function add(string _name, address _owner) public {\n\n        // MAKE SURE CALLER ADDRESS IS ADMIN\n        if (msg.sender == admin) {\n\n            // GENERATE STRUCT\n            members[memberCount].name = _name;\n            members[memberCount].owner = _owner;\n            members[memberCount].timestamp = now;\n\n            // INCREMENT\n            memberCount++;\n        }\n    }\n}",
  "sourcePath": "/var/www/html/ipfs/contracts/Main.sol",
  "compiler": {
    "name": "solc",
    "version": "0.4.23+commit.124ca40d.Emscripten.clang"
  },
  "schemaVersion": "2.0.0",
  "updatedAt": "2018-06-29T21:11:48.530Z"
}