{
  "contractName": "Main",
  "abi": [
    {
      "constant": true,
      "inputs": [
        {
          "name": "",
          "type": "address"
        }
      ],
      "name": "whitelist",
      "outputs": [
        {
          "name": "name",
          "type": "string"
        },
        {
          "name": "permission",
          "type": "string"
        },
        {
          "name": "timestamp",
          "type": "uint256"
        },
        {
          "name": "modified",
          "type": "bool"
        }
      ],
      "payable": false,
      "stateMutability": "view",
      "type": "function"
    },
    {
      "constant": true,
      "inputs": [],
      "name": "master",
      "outputs": [
        {
          "name": "",
          "type": "address"
        }
      ],
      "payable": false,
      "stateMutability": "view",
      "type": "function"
    },
    {
      "constant": false,
      "inputs": [
        {
          "name": "_name",
          "type": "string"
        },
        {
          "name": "_permission",
          "type": "string"
        },
        {
          "name": "_owner",
          "type": "address"
        }
      ],
      "name": "add",
      "outputs": [],
      "payable": false,
      "stateMutability": "nonpayable",
      "type": "function"
    },
    {
      "constant": false,
      "inputs": [
        {
          "name": "_owner",
          "type": "address"
        },
        {
          "name": "_permission",
          "type": "string"
        }
      ],
      "name": "change",
      "outputs": [],
      "payable": false,
      "stateMutability": "nonpayable",
      "type": "function"
    }
  ],
  "bytecode": "0x608060405273fffc9f737d80e9031f8b1b01d7faf59ce45def3b600160006101000a81548173ffffffffffffffffffffffffffffffffffffffff021916908373ffffffffffffffffffffffffffffffffffffffff16021790555034801561006557600080fd5b5061079c806100756000396000f300608060405260043610610062576000357c0100000000000000000000000000000000000000000000000000000000900463ffffffff16806389d4a316146100675780639b19251a14610136578063cdda877214610270578063ee97f7f3146102f9575b600080fd5b34801561007357600080fd5b50610134600480360381019080803590602001908201803590602001908080601f0160208091040260200160405190810160405280939291908181526020018383808284378201915050505050509192919290803590602001908201803590602001908080601f0160208091040260200160405190810160405280939291908181526020018383808284378201915050505050509192919290803573ffffffffffffffffffffffffffffffffffffffff169060200190929190505050610350565b005b34801561014257600080fd5b50610177600480360381019080803573ffffffffffffffffffffffffffffffffffffffff169060200190929190505050610492565b60405180806020018060200185815260200184151515158152602001838103835287818151815260200191508051906020019080838360005b838110156101cb5780820151818401526020810190506101b0565b50505050905090810190601f1680156101f85780820380516001836020036101000a031916815260200191505b50838103825286818151815260200191508051906020019080838360005b83811015610231578082015181840152602081019050610216565b50505050905090810190601f16801561025e5780820380516001836020036101000a031916815260200191505b50965050505050505060405180910390f35b34801561027c57600080fd5b506102f7600480360381019080803573ffffffffffffffffffffffffffffffffffffffff169060200190929190803590602001908201803590602001908080601f01602080910402602001604051908101604052809392919081815260200183838082843782019150505050505091929192905050506105ff565b005b34801561030557600080fd5b5061030e6106a5565b604051808273ffffffffffffffffffffffffffffffffffffffff1673ffffffffffffffffffffffffffffffffffffffff16815260200191505060405180910390f35b60008060008373ffffffffffffffffffffffffffffffffffffffff1673ffffffffffffffffffffffffffffffffffffffff16815260200190815260200160002060020154141561048d57826000808373ffffffffffffffffffffffffffffffffffffffff1673ffffffffffffffffffffffffffffffffffffffff16815260200190815260200160002060000190805190602001906103ef9291906106cb565b50816000808373ffffffffffffffffffffffffffffffffffffffff1673ffffffffffffffffffffffffffffffffffffffff16815260200190815260200160002060010190805190602001906104459291906106cb565b50426000808373ffffffffffffffffffffffffffffffffffffffff1673ffffffffffffffffffffffffffffffffffffffff168152602001908152602001600020600201819055505b505050565b6000602052806000526040600020600091509050806000018054600181600116156101000203166002900480601f01602080910402602001604051908101604052809291908181526020018280546001816001161561010002031660029004801561053e5780601f106105135761010080835404028352916020019161053e565b820191906000526020600020905b81548152906001019060200180831161052157829003601f168201915b505050505090806001018054600181600116156101000203166002900480601f0160208091040260200160405190810160405280929190818152602001828054600181600116156101000203166002900480156105dc5780601f106105b1576101008083540402835291602001916105dc565b820191906000526020600020905b8154815290600101906020018083116105bf57829003601f168201915b5050505050908060020154908060030160009054906101000a900460ff16905084565b60008060008473ffffffffffffffffffffffffffffffffffffffff1673ffffffffffffffffffffffffffffffffffffffff168152602001908152602001600020600201541415156106a157806000808473ffffffffffffffffffffffffffffffffffffffff1673ffffffffffffffffffffffffffffffffffffffff168152602001908152602001600020600101908051906020019061069f9291906106cb565b505b5050565b600160009054906101000a900473ffffffffffffffffffffffffffffffffffffffff1681565b828054600181600116156101000203166002900490600052602060002090601f016020900481019282601f1061070c57805160ff191683800117855561073a565b8280016001018555821561073a579182015b8281111561073957825182559160200191906001019061071e565b5b509050610747919061074b565b5090565b61076d91905b80821115610769576000816000905550600101610751565b5090565b905600a165627a7a723058209bd00d154638b8c68a35ab32bc8d0dd83e84d19a77e9cd1e0dc5ed82a74437e90029",
  "source": "pragma solidity ^0.4.2;\n\ncontract Main {\n\n    // WHITELIST\n    mapping (address => User) public whitelist;\n\n    // DECLARE MASTER\n    address public master = 0xFffC9F737D80E9031F8b1B01D7FAF59Ce45def3B;\n\n    // USER OBJECT\n    struct User {\n        string name;\n        string permission;\n        uint256 timestamp;\n        bool modified;\n    }\n\n    // ADD MEMBER\n    function add(string _name, string _permission, address _owner) public {\n\n        // MAKE SURE CALLER ADDRESS IS MASTER\n        //if (msg.sender == master) {\n\n            // CHECK THAT ENTRY DOESNT ALREADY EXIST IN MAP\n            if (whitelist[_owner].timestamp == 0) {\n\n                // GENERATE & PUSH NEW STRUCT\n                whitelist[_owner].name = _name;\n                whitelist[_owner].permission = _permission;\n                whitelist[_owner].timestamp = now;\n            }\n        //}\n    }\n\n    // CHANGE PERMISSION OF EXISTING USER\n    function change(address _owner, string _permission) public {\n\n        // MAKE SURE CALLER ADDRESS IS MASTER\n        //if (msg.sender == master) {\n\n            // MAKE SURE THAT ENTRY EXISTS\n            if (whitelist[_owner].timestamp != 0) {\n                whitelist[_owner].permission = _permission;\n            }\n        //}\n    }\n}",
  "sourcePath": "/var/www/html/ipfs/contracts/Main.sol",
  "compiler": {
    "name": "solc",
    "version": "0.4.24+commit.e67f0147.Emscripten.clang"
  },
  "schemaVersion": "2.0.1",
  "updatedAt": "2018-09-06T06:25:34.825Z"
}