{
  "contractName": "Migrations",
  "abi": [
    {
      "constant": true,
      "inputs": [],
      "name": "last_completed_migration",
      "outputs": [
        {
          "name": "",
          "type": "uint256"
        }
      ],
      "payable": false,
      "stateMutability": "view",
      "type": "function"
    },
    {
      "constant": true,
      "inputs": [],
      "name": "owner",
      "outputs": [
        {
          "name": "",
          "type": "address"
        }
      ],
      "payable": false,
      "stateMutability": "view",
      "type": "function"
    },
    {
      "constant": false,
      "inputs": [],
      "name": "constructor",
      "outputs": [],
      "payable": false,
      "stateMutability": "nonpayable",
      "type": "function"
    },
    {
      "constant": false,
      "inputs": [
        {
          "name": "completed",
          "type": "uint256"
        }
      ],
      "name": "setCompleted",
      "outputs": [],
      "payable": false,
      "stateMutability": "nonpayable",
      "type": "function"
    },
    {
      "constant": false,
      "inputs": [
        {
          "name": "new_address",
          "type": "address"
        }
      ],
      "name": "upgrade",
      "outputs": [],
      "payable": false,
      "stateMutability": "nonpayable",
      "type": "function"
    }
  ],
  "bytecode": "0x608060405234801561001057600080fd5b5061035c806100206000396000f30060806040526004361061006d576000357c0100000000000000000000000000000000000000000000000000000000900463ffffffff1680630900f01014610072578063445df0ac146100b55780638da5cb5b146100e057806390fa17bb14610137578063fdacd5761461014e575b600080fd5b34801561007e57600080fd5b506100b3600480360381019080803573ffffffffffffffffffffffffffffffffffffffff16906020019092919050505061017b565b005b3480156100c157600080fd5b506100ca610263565b6040518082815260200191505060405180910390f35b3480156100ec57600080fd5b506100f5610269565b604051808273ffffffffffffffffffffffffffffffffffffffff1673ffffffffffffffffffffffffffffffffffffffff16815260200191505060405180910390f35b34801561014357600080fd5b5061014c61028e565b005b34801561015a57600080fd5b50610179600480360381019080803590602001909291905050506102d0565b005b60008060009054906101000a900473ffffffffffffffffffffffffffffffffffffffff1673ffffffffffffffffffffffffffffffffffffffff163373ffffffffffffffffffffffffffffffffffffffff16141561025f578190508073ffffffffffffffffffffffffffffffffffffffff1663fdacd5766001546040518263ffffffff167c010000000000000000000000000000000000000000000000000000000002815260040180828152602001915050600060405180830381600087803b15801561024657600080fd5b505af115801561025a573d6000803e3d6000fd5b505050505b5050565b60015481565b6000809054906101000a900473ffffffffffffffffffffffffffffffffffffffff1681565b336000806101000a81548173ffffffffffffffffffffffffffffffffffffffff021916908373ffffffffffffffffffffffffffffffffffffffff160217905550565b6000809054906101000a900473ffffffffffffffffffffffffffffffffffffffff1673ffffffffffffffffffffffffffffffffffffffff163373ffffffffffffffffffffffffffffffffffffffff16141561032d57806001819055505b505600a165627a7a72305820aa651e9f237c4fa47561bc54adba5882d9ad5d3df50d0187fe08715dfe157c0d0029",
  "source": "pragma solidity ^0.4.2;\r\n\r\ncontract Migrations {\r\n    address public owner;\r\n    uint public last_completed_migration;\r\n\r\n    modifier restricted() {\r\n        if (msg.sender == owner) _;\r\n    }\r\n\r\n    function constructor() public {\r\n        owner = msg.sender;\r\n    }\r\n\r\n    function setCompleted(uint completed) restricted public {\r\n        last_completed_migration = completed;\r\n    }\r\n\r\n    function upgrade(address new_address) restricted public {\r\n        Migrations upgraded = Migrations(new_address);\r\n        upgraded.setCompleted(last_completed_migration);\r\n    }\r\n}",
  "sourcePath": "C:\\xampp\\htdocs\\ipfs\\contracts\\Migrations.sol",
  "compiler": {
    "name": "solc",
    "version": "0.4.24+commit.e67f0147.Emscripten.clang"
  },
  "schemaVersion": "2.0.1",
  "updatedAt": "2018-09-03T06:16:15.459Z"
}